{
  "contractName": "Market",
  "abi": [
    {
      "inputs": [
        {
          "internalType": "address",
          "name": "_nft",
          "type": "address"
        }
      ],
      "stateMutability": "nonpayable",
      "type": "constructor"
    },
    {
      "anonymous": false,
      "inputs": [
        {
          "indexed": true,
          "internalType": "uint256",
          "name": "oldPrice",
          "type": "uint256"
        },
        {
          "indexed": true,
          "internalType": "uint256",
          "name": "newPrice",
          "type": "uint256"
        },
        {
          "indexed": false,
          "internalType": "uint256",
          "name": "timestamp",
          "type": "uint256"
        }
      ],
      "name": "ListingPriceChanged",
      "type": "event"
    },
    {
      "anonymous": false,
      "inputs": [
        {
          "indexed": true,
          "internalType": "uint256",
          "name": "tokenId",
          "type": "uint256"
        },
        {
          "indexed": true,
          "internalType": "address",
          "name": "seller",
          "type": "address"
        },
        {
          "indexed": true,
          "internalType": "address",
          "name": "buyer",
          "type": "address"
        },
        {
          "indexed": false,
          "internalType": "uint256",
          "name": "price",
          "type": "uint256"
        },
        {
          "indexed": false,
          "internalType": "uint256",
          "name": "listingPrice",
          "type": "uint256"
        },
        {
          "indexed": false,
          "internalType": "uint256",
          "name": "timestamp",
          "type": "uint256"
        }
      ],
      "name": "MarketItemBought",
      "type": "event"
    },
    {
      "anonymous": false,
      "inputs": [
        {
          "indexed": true,
          "internalType": "uint256",
          "name": "tokenId",
          "type": "uint256"
        },
        {
          "indexed": true,
          "internalType": "address",
          "name": "seller",
          "type": "address"
        },
        {
          "indexed": false,
          "internalType": "uint256",
          "name": "price",
          "type": "uint256"
        },
        {
          "indexed": false,
          "internalType": "uint256",
          "name": "listingPrice",
          "type": "uint256"
        },
        {
          "indexed": false,
          "internalType": "uint256",
          "name": "timestamp",
          "type": "uint256"
        }
      ],
      "name": "MarketItemCreated",
      "type": "event"
    },
    {
      "anonymous": false,
      "inputs": [
        {
          "indexed": true,
          "internalType": "uint256",
          "name": "tokenId",
          "type": "uint256"
        },
        {
          "indexed": true,
          "internalType": "address",
          "name": "seller",
          "type": "address"
        },
        {
          "indexed": false,
          "internalType": "uint256",
          "name": "price",
          "type": "uint256"
        },
        {
          "indexed": false,
          "internalType": "uint256",
          "name": "listingPrice",
          "type": "uint256"
        },
        {
          "indexed": false,
          "internalType": "uint256",
          "name": "timestamp",
          "type": "uint256"
        }
      ],
      "name": "MarketItemDelisted",
      "type": "event"
    },
    {
      "anonymous": false,
      "inputs": [
        {
          "indexed": true,
          "internalType": "address",
          "name": "previousOwner",
          "type": "address"
        },
        {
          "indexed": true,
          "internalType": "address",
          "name": "newOwner",
          "type": "address"
        }
      ],
      "name": "OwnershipTransferred",
      "type": "event"
    },
    {
      "inputs": [],
      "name": "listingPrice",
      "outputs": [
        {
          "internalType": "uint256",
          "name": "",
          "type": "uint256"
        }
      ],
      "stateMutability": "view",
      "type": "function",
      "constant": true
    },
    {
      "inputs": [
        {
          "internalType": "uint256",
          "name": "",
          "type": "uint256"
        }
      ],
      "name": "marketItem",
      "outputs": [
        {
          "internalType": "uint256",
          "name": "tokenId",
          "type": "uint256"
        },
        {
          "internalType": "address",
          "name": "seller",
          "type": "address"
        },
        {
          "internalType": "address",
          "name": "buyer",
          "type": "address"
        },
        {
          "internalType": "uint256",
          "name": "price",
          "type": "uint256"
        },
        {
          "internalType": "uint256",
          "name": "listingPrice",
          "type": "uint256"
        }
      ],
      "stateMutability": "view",
      "type": "function",
      "constant": true
    },
    {
      "inputs": [],
      "name": "owner",
      "outputs": [
        {
          "internalType": "address",
          "name": "",
          "type": "address"
        }
      ],
      "stateMutability": "view",
      "type": "function",
      "constant": true
    },
    {
      "inputs": [
        {
          "internalType": "address",
          "name": "newOwner",
          "type": "address"
        }
      ],
      "name": "transferOwnership",
      "outputs": [],
      "stateMutability": "nonpayable",
      "type": "function"
    },
    {
      "inputs": [
        {
          "internalType": "uint256",
          "name": "_tokenId",
          "type": "uint256"
        },
        {
          "internalType": "uint256",
          "name": "_price",
          "type": "uint256"
        }
      ],
      "name": "createMarketItem",
      "outputs": [],
      "stateMutability": "payable",
      "type": "function",
      "payable": true
    },
    {
      "inputs": [
        {
          "internalType": "uint256",
          "name": "_tokenId",
          "type": "uint256"
        }
      ],
      "name": "buyMarketItem",
      "outputs": [],
      "stateMutability": "payable",
      "type": "function",
      "payable": true
    },
    {
      "inputs": [
        {
          "internalType": "uint256",
          "name": "_tokenId",
          "type": "uint256"
        }
      ],
      "name": "delistMarketItem",
      "outputs": [],
      "stateMutability": "nonpayable",
      "type": "function"
    },
    {
      "inputs": [
        {
          "internalType": "uint256",
          "name": "_price",
          "type": "uint256"
        }
      ],
      "name": "setListingPrice",
      "outputs": [],
      "stateMutability": "nonpayable",
      "type": "function"
    },
    {
      "inputs": [],
      "name": "renounceOwnership",
      "outputs": [],
      "stateMutability": "view",
      "type": "function",
      "constant": true
    }
  ],
  "bytecode": "0x60806040523480156200001157600080fd5b5060405162001ee938038062001ee983398181016040528101906200003791906200024f565b620000576200004b6200011960201b60201c565b6200012160201b60201c565b60018081905550600073ffffffffffffffffffffffffffffffffffffffff168173ffffffffffffffffffffffffffffffffffffffff161415620000d1576040517f08c379a0000000000000000000000000000000000000000000000000000000008152600401620000c890620002e2565b60405180910390fd5b80600260006101000a81548173ffffffffffffffffffffffffffffffffffffffff021916908373ffffffffffffffffffffffffffffffffffffffff1602179055505062000304565b600033905090565b60008060009054906101000a900473ffffffffffffffffffffffffffffffffffffffff169050816000806101000a81548173ffffffffffffffffffffffffffffffffffffffff021916908373ffffffffffffffffffffffffffffffffffffffff1602179055508173ffffffffffffffffffffffffffffffffffffffff168173ffffffffffffffffffffffffffffffffffffffff167f8be0079c531659141344cd1fd0a4f28419497f9722a3daafe3b4186f6b6457e060405160405180910390a35050565b600080fd5b600073ffffffffffffffffffffffffffffffffffffffff82169050919050565b60006200021782620001ea565b9050919050565b62000229816200020a565b81146200023557600080fd5b50565b60008151905062000249816200021e565b92915050565b600060208284031215620002685762000267620001e5565b5b6000620002788482850162000238565b91505092915050565b600082825260208201905092915050565b7f496e76616c6964206e667420636f6e7472616374206164647265737300000000600082015250565b6000620002ca601c8362000281565b9150620002d78262000292565b602082019050919050565b60006020820190508181036000830152620002fd81620002bb565b9050919050565b611bd580620003146000396000f3fe6080604052600436106100865760003560e01c80637c726b69116100595780637c726b691461011b5780638da5cb5b14610144578063c68a0e161461016f578063c78f19f914610198578063f2fde38b146101c357610086565b806322d4efd81461008b578063351901c3146100cc578063361c1995146100e8578063715018a614610104575b600080fd5b34801561009757600080fd5b506100b260048036038101906100ad919061126d565b6101ec565b6040516100c39594939291906112ea565b60405180910390f35b6100e660048036038101906100e1919061126d565b610262565b005b61010260048036038101906100fd919061133d565b6106dd565b005b34801561011057600080fd5b50610119610c19565b005b34801561012757600080fd5b50610142600480360381019061013d919061126d565b610cd0565b005b34801561015057600080fd5b50610159610d91565b604051610166919061137d565b60405180910390f35b34801561017b57600080fd5b506101966004803603810190610191919061126d565b610dba565b005b3480156101a457600080fd5b506101ad611068565b6040516101ba9190611398565b60405180910390f35b3480156101cf57600080fd5b506101ea60048036038101906101e591906113df565b61106e565b005b60046020528060005260406000206000915090508060000154908060010160009054906101000a900473ffffffffffffffffffffffffffffffffffffffff16908060020160009054906101000a900473ffffffffffffffffffffffffffffffffffffffff16908060030154908060040154905085565b600260015414156102a8576040517f08c379a000000000000000000000000000000000000000000000000000000000815260040161029f90611469565b60405180910390fd5b60026001819055506000600460008381526020019081526020016000209050600073ffffffffffffffffffffffffffffffffffffffff168160020160009054906101000a900473ffffffffffffffffffffffffffffffffffffffff1673ffffffffffffffffffffffffffffffffffffffff161461035a576040517f08c379a0000000000000000000000000000000000000000000000000000000008152600401610351906114d5565b60405180910390fd5b806003015434146103a0576040517f08c379a000000000000000000000000000000000000000000000000000000000815260040161039790611567565b60405180910390fd5b8060010160009054906101000a900473ffffffffffffffffffffffffffffffffffffffff1673ffffffffffffffffffffffffffffffffffffffff163373ffffffffffffffffffffffffffffffffffffffff161415610433576040517f08c379a000000000000000000000000000000000000000000000000000000000815260040161042a906115d3565b60405180910390fd5b338160020160006101000a81548173ffffffffffffffffffffffffffffffffffffffff021916908373ffffffffffffffffffffffffffffffffffffffff1602179055508060010160009054906101000a900473ffffffffffffffffffffffffffffffffffffffff1673ffffffffffffffffffffffffffffffffffffffff166108fc82600301549081150290604051600060405180830381858888f193505050501580156104e4573d6000803e3d6000fd5b506104ed610d91565b73ffffffffffffffffffffffffffffffffffffffff166108fc82600401549081150290604051600060405180830381858888f19350505050158015610536573d6000803e3d6000fd5b50600260009054906101000a900473ffffffffffffffffffffffffffffffffffffffff1673ffffffffffffffffffffffffffffffffffffffff166323b872dd8260010160009054906101000a900473ffffffffffffffffffffffffffffffffffffffff168360020160009054906101000a900473ffffffffffffffffffffffffffffffffffffffff1684600001546040518463ffffffff1660e01b81526004016105e2939291906115f3565b600060405180830381600087803b1580156105fc57600080fd5b505af1158015610610573d6000803e3d6000fd5b505050508060020160009054906101000a900473ffffffffffffffffffffffffffffffffffffffff1673ffffffffffffffffffffffffffffffffffffffff168160010160009054906101000a900473ffffffffffffffffffffffffffffffffffffffff1673ffffffffffffffffffffffffffffffffffffffff1682600001547f66d690ce92374dc3bd95cff0fff3f28cdfaf438bcb0a113552fa202f08423b7f84600301548560040154426040516106ca9392919061162a565b60405180910390a4506001808190555050565b60026001541415610723576040517f08c379a000000000000000000000000000000000000000000000000000000000815260040161071a90611469565b60405180910390fd5b60026001819055506000600460008481526020019081526020016000209050600073ffffffffffffffffffffffffffffffffffffffff168160010160009054906101000a900473ffffffffffffffffffffffffffffffffffffffff1673ffffffffffffffffffffffffffffffffffffffff1614806107f25750600073ffffffffffffffffffffffffffffffffffffffff168160020160009054906101000a900473ffffffffffffffffffffffffffffffffffffffff1673ffffffffffffffffffffffffffffffffffffffff1614155b610831576040517f08c379a0000000000000000000000000000000000000000000000000000000008152600401610828906116d3565b60405180910390fd5b60008211610874576040517f08c379a000000000000000000000000000000000000000000000000000000000815260040161086b90611765565b60405180910390fd5b60035434146108b8576040517f08c379a00000000000000000000000000000000000000000000000000000000081526004016108af906117f7565b60405180910390fd5b3373ffffffffffffffffffffffffffffffffffffffff16600260009054906101000a900473ffffffffffffffffffffffffffffffffffffffff1673ffffffffffffffffffffffffffffffffffffffff16636352211e856040518263ffffffff1660e01b815260040161092a9190611398565b60206040518083038186803b15801561094257600080fd5b505afa158015610956573d6000803e3d6000fd5b505050506040513d601f19601f8201168201806040525081019061097a919061182c565b73ffffffffffffffffffffffffffffffffffffffff16146109d0576040517f08c379a00000000000000000000000000000000000000000000000000000000081526004016109c7906118cb565b60405180910390fd5b3073ffffffffffffffffffffffffffffffffffffffff16600260009054906101000a900473ffffffffffffffffffffffffffffffffffffffff1673ffffffffffffffffffffffffffffffffffffffff1663081812fc856040518263ffffffff1660e01b8152600401610a429190611398565b60206040518083038186803b158015610a5a57600080fd5b505afa158015610a6e573d6000803e3d6000fd5b505050506040513d601f19601f82011682018060405250810190610a92919061182c565b73ffffffffffffffffffffffffffffffffffffffff1614610ae8576040517f08c379a0000000000000000000000000000000000000000000000000000000008152600401610adf9061195d565b60405180910390fd5b828160000181905550338160010160006101000a81548173ffffffffffffffffffffffffffffffffffffffff021916908373ffffffffffffffffffffffffffffffffffffffff16021790555060008160020160006101000a81548173ffffffffffffffffffffffffffffffffffffffff021916908373ffffffffffffffffffffffffffffffffffffffff1602179055508181600301819055503481600401819055508060010160009054906101000a900473ffffffffffffffffffffffffffffffffffffffff1673ffffffffffffffffffffffffffffffffffffffff1681600001547fad33876a9cdddb3121231a772cba2bcf7a6ebec85c2b04b2a595c5ea921b10918360030154846004015442604051610c059392919061162a565b60405180910390a350600180819055505050565b610c21611166565b73ffffffffffffffffffffffffffffffffffffffff16610c3f610d91565b73ffffffffffffffffffffffffffffffffffffffff1614610c95576040517f08c379a0000000000000000000000000000000000000000000000000000000008152600401610c8c906119c9565b60405180910390fd5b6040517f08c379a0000000000000000000000000000000000000000000000000000000008152600401610cc790611a5b565b60405180910390fd5b610cd8611166565b73ffffffffffffffffffffffffffffffffffffffff16610cf6610d91565b73ffffffffffffffffffffffffffffffffffffffff1614610d4c576040517f08c379a0000000000000000000000000000000000000000000000000000000008152600401610d43906119c9565b60405180910390fd5b806003547fca6208d406c3c4ef53bee1c4cb9ee3281e68a24ceba350b3a324c05d964f69aa42604051610d7f9190611398565b60405180910390a38060038190555050565b60008060009054906101000a900473ffffffffffffffffffffffffffffffffffffffff16905090565b6000600460008381526020019081526020016000209050600073ffffffffffffffffffffffffffffffffffffffff168160020160009054906101000a900473ffffffffffffffffffffffffffffffffffffffff1673ffffffffffffffffffffffffffffffffffffffff1614610e64576040517f08c379a0000000000000000000000000000000000000000000000000000000008152600401610e5b906114d5565b60405180910390fd5b8060010160009054906101000a900473ffffffffffffffffffffffffffffffffffffffff1673ffffffffffffffffffffffffffffffffffffffff163373ffffffffffffffffffffffffffffffffffffffff1614610ef6576040517f08c379a0000000000000000000000000000000000000000000000000000000008152600401610eed90611aed565b60405180910390fd5b8060010160009054906101000a900473ffffffffffffffffffffffffffffffffffffffff1673ffffffffffffffffffffffffffffffffffffffff166108fc82600401549081150290604051600060405180830381858888f19350505050158015610f64573d6000803e3d6000fd5b508060010160009054906101000a900473ffffffffffffffffffffffffffffffffffffffff1673ffffffffffffffffffffffffffffffffffffffff1681600001547f1373d5f35dc39e861e04195ab646bdd5d5abb0cb07b02e208fdc5e204b528fdf8360030154846004015442604051610fe09392919061162a565b60405180910390a3600460008381526020019081526020016000206000808201600090556001820160006101000a81549073ffffffffffffffffffffffffffffffffffffffff02191690556002820160006101000a81549073ffffffffffffffffffffffffffffffffffffffff02191690556003820160009055600482016000905550505050565b60035481565b611076611166565b73ffffffffffffffffffffffffffffffffffffffff16611094610d91565b73ffffffffffffffffffffffffffffffffffffffff16146110ea576040517f08c379a00000000000000000000000000000000000000000000000000000000081526004016110e1906119c9565b60405180910390fd5b600073ffffffffffffffffffffffffffffffffffffffff168173ffffffffffffffffffffffffffffffffffffffff16141561115a576040517f08c379a000000000000000000000000000000000000000000000000000000000815260040161115190611b7f565b60405180910390fd5b6111638161116e565b50565b600033905090565b60008060009054906101000a900473ffffffffffffffffffffffffffffffffffffffff169050816000806101000a81548173ffffffffffffffffffffffffffffffffffffffff021916908373ffffffffffffffffffffffffffffffffffffffff1602179055508173ffffffffffffffffffffffffffffffffffffffff168173ffffffffffffffffffffffffffffffffffffffff167f8be0079c531659141344cd1fd0a4f28419497f9722a3daafe3b4186f6b6457e060405160405180910390a35050565b600080fd5b6000819050919050565b61124a81611237565b811461125557600080fd5b50565b60008135905061126781611241565b92915050565b60006020828403121561128357611282611232565b5b600061129184828501611258565b91505092915050565b6112a381611237565b82525050565b600073ffffffffffffffffffffffffffffffffffffffff82169050919050565b60006112d4826112a9565b9050919050565b6112e4816112c9565b82525050565b600060a0820190506112ff600083018861129a565b61130c60208301876112db565b61131960408301866112db565b611326606083018561129a565b611333608083018461129a565b9695505050505050565b6000806040838503121561135457611353611232565b5b600061136285828601611258565b925050602061137385828601611258565b9150509250929050565b600060208201905061139260008301846112db565b92915050565b60006020820190506113ad600083018461129a565b92915050565b6113bc816112c9565b81146113c757600080fd5b50565b6000813590506113d9816113b3565b92915050565b6000602082840312156113f5576113f4611232565b5b6000611403848285016113ca565b91505092915050565b600082825260208201905092915050565b7f5265656e7472616e637947756172643a207265656e7472616e742063616c6c00600082015250565b6000611453601f8361140c565b915061145e8261141d565b602082019050919050565b6000602082019050818103600083015261148281611446565b9050919050565b7f4d61726b6574206974656d20686173206265656e20736f6c6400000000000000600082015250565b60006114bf60198361140c565b91506114ca82611489565b602082019050919050565b600060208201905081810360008301526114ee816114b2565b9050919050565b7f53656e6420616e20616d6f756e7420657175616c20746f20746865207072696360008201527f65206f6620746865206974656d00000000000000000000000000000000000000602082015250565b6000611551602d8361140c565b915061155c826114f5565b604082019050919050565b6000602082019050818103600083015261158081611544565b9050919050565b7f53656c6c65722063616e27742062757900000000000000000000000000000000600082015250565b60006115bd60108361140c565b91506115c882611587565b602082019050919050565b600060208201905081810360008301526115ec816115b0565b9050919050565b600060608201905061160860008301866112db565b61161560208301856112db565b611622604083018461129a565b949350505050565b600060608201905061163f600083018661129a565b61164c602083018561129a565b611659604083018461129a565b949350505050565b7f4d61726b6574206974656d206973206c697374656420616e64206e6f7420626f60008201527f7567687420796574000000000000000000000000000000000000000000000000602082015250565b60006116bd60288361140c565b91506116c882611661565b604082019050919050565b600060208201905081810360008301526116ec816116b0565b9050919050565b7f50726963652073686f756c642062652067726561746572207468616e207a657260008201527f6f00000000000000000000000000000000000000000000000000000000000000602082015250565b600061174f60218361140c565b915061175a826116f3565b604082019050919050565b6000602082019050818103600083015261177e81611742565b9050919050565b7f53656e6420616e20616d6f756e7420657175616c20746f20746865206c69737460008201527f696e672070726963650000000000000000000000000000000000000000000000602082015250565b60006117e160298361140c565b91506117ec82611785565b604082019050919050565b60006020820190508181036000830152611810816117d4565b9050919050565b600081519050611826816113b3565b92915050565b60006020828403121561184257611841611232565b5b600061185084828501611817565b91505092915050565b7f4f6e6c7920746865206f776e6572206f6620746865204e46542063616e20737460008201527f617274207468652073616c650000000000000000000000000000000000000000602082015250565b60006118b5602c8361140c565b91506118c082611859565b604082019050919050565b600060208201905081810360008301526118e4816118a8565b9050919050565b7f417070726f766520746865204e465420746f20746865206d61726b657420636f60008201527f6e74726163740000000000000000000000000000000000000000000000000000602082015250565b600061194760268361140c565b9150611952826118eb565b604082019050919050565b600060208201905081810360008301526119768161193a565b9050919050565b7f4f776e61626c653a2063616c6c6572206973206e6f7420746865206f776e6572600082015250565b60006119b360208361140c565b91506119be8261197d565b602082019050919050565b600060208201905081810360008301526119e2816119a6565b9050919050565b7f4f776e6572736869702063616e27742062652072656e6f756e63656420666f7260008201527f207468697320636f6e7472616374000000000000000000000000000000000000602082015250565b6000611a45602e8361140c565b9150611a50826119e9565b604082019050919050565b60006020820190508181036000830152611a7481611a38565b9050919050565b7f4f6e6c79207468652073656c6c65722063616e2064652d6c697374207468656960008201527f72206974656d0000000000000000000000000000000000000000000000000000602082015250565b6000611ad760268361140c565b9150611ae282611a7b565b604082019050919050565b60006020820190508181036000830152611b0681611aca565b9050919050565b7f4f776e61626c653a206e6577206f776e657220697320746865207a65726f206160008201527f6464726573730000000000000000000000000000000000000000000000000000602082015250565b6000611b6960268361140c565b9150611b7482611b0d565b604082019050919050565b60006020820190508181036000830152611b9881611b5c565b905091905056fea26469706673582212205e0d326772021f273a36630da390e49f80fed19a9e5d6f5a172a168e6e149ce164736f6c63430008080033",
  "immutableReferences": {},
  "source": "// SPDX-License-Identifier: MIT\r\npragma solidity ^0.8.0;\r\n\r\nimport \"@openzeppelin/contracts/access/Ownable.sol\";\r\nimport \"@openzeppelin/contracts/security/ReentrancyGuard.sol\";\r\nimport \"@openzeppelin/contracts/token/ERC721/IERC721.sol\";\r\n\r\n/**\r\n * @title Marketplace contract\r\n *\r\n * @dev There are three main functions:\r\n *      createMarketItem - to create a market item and start a sale\r\n *      buyMarketItem - to buy an item on sale\r\n *      delistMarketItem - to remove an item from sale\r\n *\r\n * After minting a token, the owner of the token can start its sale using createMarketItem.\r\n * They should supply a listing price, which is locked in this contract, and is transferred\r\n * to the contract owner when someone buys the item. Prior to creating the market item, they must approve\r\n * their NFT to this contract.\r\n *\r\n * When someone buys an item, they have to supply an amount equal to the price set by the seller.\r\n * That amount is transferred to the seller, the locked listing price is transferred to the contract owner,\r\n * and the NFT is transferred from the seller to the buyer.\r\n *\r\n * If the item is not bought, the seller can de-list the item from the marketplace and get\r\n * the invested listing fee back to their account.\r\n */\r\ncontract Market is Ownable, ReentrancyGuard {\r\n  /**\r\n   * @dev NFT contract address\r\n   */\r\n  address NFTAddress;\r\n\r\n  /**\r\n   * @dev Listing price for market items\r\n   * When creating an item, the creator has to send this amount, which is locked in the contract.\r\n   * When the item is sold, this amount is sent to the owner of the contract.\r\n   */\r\n  uint public listingPrice;\r\n\r\n  struct MarketItem {\r\n    uint tokenId;\r\n    address seller;\r\n    address buyer;\r\n    uint price;\r\n    uint listingPrice;\r\n  }\r\n\r\n  /**\r\n   * @dev Mapping from token IDs to Market items\r\n   */\r\n  mapping(uint => MarketItem) public marketItem;\r\n\r\n  event MarketItemCreated(\r\n    uint indexed tokenId,\r\n    address indexed seller,\r\n    uint price,\r\n    uint listingPrice,\r\n    uint timestamp\r\n  );\r\n\r\n  event MarketItemBought(\r\n    uint indexed tokenId,\r\n    address indexed seller,\r\n    address indexed buyer,\r\n    uint price,\r\n    uint listingPrice,\r\n    uint timestamp\r\n  );\r\n\r\n  event MarketItemDelisted(\r\n    uint indexed tokenId,\r\n    address indexed seller,\r\n    uint price,\r\n    uint listingPrice,\r\n    uint timestamp\r\n  );\r\n\r\n  event ListingPriceChanged(\r\n    uint indexed oldPrice,\r\n    uint indexed newPrice,\r\n    uint timestamp\r\n  );\r\n\r\n  /**\r\n   * @dev Set the NFT contract address while deploying\r\n   *\r\n   * @param _nft address of the nft contract\r\n   */\r\n  constructor(address _nft) {\r\n    require(_nft != address(0), \"Invalid nft contract address\");\r\n    NFTAddress = _nft;\r\n  }\r\n\r\n  /**\r\n   * @dev Create a new market item to be listed on the marketplace.\r\n   * Can only be called if it isn't already created OR, if created then has been bought.\r\n   * Before calling this function, the owner of the nft has to approve the nft to this contract.\r\n   * The owner has to send an amount equal to the listing price, which would be transferred to the\r\n   * contract owner when someone buys the nft.\r\n   * \r\n   * @param _tokenId the id of the nft\r\n   * @param _price selling price for the nft\r\n   */\r\n  function createMarketItem(uint _tokenId, uint _price) public payable nonReentrant {\r\n    MarketItem storage item = marketItem[_tokenId];\r\n    require(item.seller == address(0) || item.buyer != address(0), \"Market item is listed and not bought yet\");\r\n\r\n    require(_price > 0, \"Price should be greater than zero\");\r\n    require(msg.value == listingPrice, \"Send an amount equal to the listing price\");\r\n    require(IERC721(NFTAddress).ownerOf(_tokenId) == msg.sender, \"Only the owner of the NFT can start the sale\");\r\n    require(IERC721(NFTAddress).getApproved(_tokenId) == address(this), \"Approve the NFT to the market contract\");\r\n\r\n    item.tokenId = _tokenId;\r\n    item.seller = msg.sender;\r\n    item.buyer = address(0);\r\n    item.price = _price;\r\n    item.listingPrice = msg.value;\r\n\r\n    emit MarketItemCreated(item.tokenId, item.seller, item.price, item.listingPrice, block.timestamp);\r\n  }\r\n\r\n  /**\r\n   * @dev Buy a market item\r\n   * The buyer has to send an amount equal to the price of the nft, which is transferred to the seller.\r\n   * The listing price (which was locked in the contract since the time when the item was created) is\r\n   * transferred to the contract owner.\r\n   *\r\n   * @param _tokenId the id of the nft to buy\r\n   */\r\n  function buyMarketItem(uint _tokenId) public payable nonReentrant {\r\n    MarketItem storage item = marketItem[_tokenId];\r\n    require(item.buyer == address(0), \"Market item has been sold\");\r\n\r\n    require(msg.value == item.price, \"Send an amount equal to the price of the item\");\r\n    require(msg.sender != item.seller, \"Seller can't buy\");\r\n    item.buyer = msg.sender;\r\n    payable(item.seller).transfer(item.price);\r\n    payable(owner()).transfer(item.listingPrice);\r\n    IERC721(NFTAddress).transferFrom(item.seller, item.buyer, item.tokenId);\r\n\r\n    emit MarketItemBought(item.tokenId, item.seller, item.buyer, item.price, item.listingPrice, block.timestamp);\r\n  }\r\n\r\n  /**\r\n   * @dev Remove a market item\r\n   * If the item is not bought, the seller can remove the created market item.\r\n   * They also get back the listing price they had invested while creating the item.\r\n   *\r\n   * @param _tokenId the id of the nft\r\n   */\r\n  function delistMarketItem(uint _tokenId) public {\r\n    MarketItem storage item = marketItem[_tokenId];\r\n    require(item.buyer == address(0), \"Market item has been sold\");\r\n    require(msg.sender == item.seller, \"Only the seller can de-list their item\");\r\n\r\n    payable(item.seller).transfer(item.listingPrice);\r\n\r\n    emit MarketItemDelisted(item.tokenId, item.seller, item.price, item.listingPrice, block.timestamp);\r\n\r\n    delete marketItem[_tokenId];\r\n  }\r\n\r\n  /**\r\n   * @dev Allows the owner to set the listing price.\r\n   *\r\n   * @param _price the new listing price\r\n   */\r\n  function setListingPrice(uint _price) public onlyOwner {\r\n    emit ListingPriceChanged(listingPrice, _price, block.timestamp);\r\n    listingPrice = _price;\r\n  }\r\n\r\n  /**\r\n   * @dev Restricts the owner from setting the ownership to null address\r\n   */\r\n  function renounceOwnership() public view override onlyOwner {\r\n    revert(\"Ownership can't be renounced for this contract\");\r\n  }\r\n}\r\n",
  "sourcePath": "C:/Users/HP/Documents/Projects/nft-marketplace/contracts/Market.sol",
  "compiler": {
    "name": "solc",
    "version": "0.8.8+commit.dddeac2f.Emscripten.clang"
  },
  "schemaVersion": "3.4.1",
  "updatedAt": "2022-05-01T09:03:49.193Z",
  "networkType": "ethereum",
  "devdoc": {
    "details": "There are three main functions:      createMarketItem - to create a market item and start a sale      buyMarketItem - to buy an item on sale      delistMarketItem - to remove an item from sale After minting a token, the owner of the token can start its sale using createMarketItem. They should supply a listing price, which is locked in this contract, and is transferred to the contract owner when someone buys the item. Prior to creating the market item, they must approve their NFT to this contract. When someone buys an item, they have to supply an amount equal to the price set by the seller. That amount is transferred to the seller, the locked listing price is transferred to the contract owner, and the NFT is transferred from the seller to the buyer. If the item is not bought, the seller can de-list the item from the marketplace and get the invested listing fee back to their account.",
    "kind": "dev",
    "methods": {
      "buyMarketItem(uint256)": {
        "details": "Buy a market item The buyer has to send an amount equal to the price of the nft, which is transferred to the seller. The listing price (which was locked in the contract since the time when the item was created) is transferred to the contract owner.",
        "params": {
          "_tokenId": "the id of the nft to buy"
        }
      },
      "constructor": {
        "details": "Set the NFT contract address while deploying",
        "params": {
          "_nft": "address of the nft contract"
        }
      },
      "createMarketItem(uint256,uint256)": {
        "details": "Create a new market item to be listed on the marketplace. Can only be called if it isn't already created OR, if created then has been bought. Before calling this function, the owner of the nft has to approve the nft to this contract. The owner has to send an amount equal to the listing price, which would be transferred to the contract owner when someone buys the nft. ",
        "params": {
          "_price": "selling price for the nft",
          "_tokenId": "the id of the nft"
        }
      },
      "delistMarketItem(uint256)": {
        "details": "Remove a market item If the item is not bought, the seller can remove the created market item. They also get back the listing price they had invested while creating the item.",
        "params": {
          "_tokenId": "the id of the nft"
        }
      },
      "owner()": {
        "details": "Returns the address of the current owner."
      },
      "renounceOwnership()": {
        "details": "Restricts the owner from setting the ownership to null address"
      },
      "setListingPrice(uint256)": {
        "details": "Allows the owner to set the listing price.",
        "params": {
          "_price": "the new listing price"
        }
      },
      "transferOwnership(address)": {
        "details": "Transfers ownership of the contract to a new account (`newOwner`). Can only be called by the current owner."
      }
    },
    "stateVariables": {
      "NFTAddress": {
        "details": "NFT contract address"
      },
      "listingPrice": {
        "details": "Listing price for market items When creating an item, the creator has to send this amount, which is locked in the contract. When the item is sold, this amount is sent to the owner of the contract."
      },
      "marketItem": {
        "details": "Mapping from token IDs to Market items"
      }
    },
    "title": "Marketplace contract",
    "version": 1
  },
  "userdoc": {
    "kind": "user",
    "methods": {},
    "version": 1
  }
}