{
  "contractName": "NFT",
  "abi": [
    {
      "inputs": [
        {
          "internalType": "string",
          "name": "_nftName",
          "type": "string"
        },
        {
          "internalType": "string",
          "name": "_nftSymbol",
          "type": "string"
        }
      ],
      "stateMutability": "nonpayable",
      "type": "constructor"
    },
    {
      "anonymous": false,
      "inputs": [
        {
          "indexed": true,
          "internalType": "address",
          "name": "owner",
          "type": "address"
        },
        {
          "indexed": true,
          "internalType": "address",
          "name": "approved",
          "type": "address"
        },
        {
          "indexed": true,
          "internalType": "uint256",
          "name": "tokenId",
          "type": "uint256"
        }
      ],
      "name": "Approval",
      "type": "event"
    },
    {
      "anonymous": false,
      "inputs": [
        {
          "indexed": true,
          "internalType": "address",
          "name": "owner",
          "type": "address"
        },
        {
          "indexed": true,
          "internalType": "address",
          "name": "operator",
          "type": "address"
        },
        {
          "indexed": false,
          "internalType": "bool",
          "name": "approved",
          "type": "bool"
        }
      ],
      "name": "ApprovalForAll",
      "type": "event"
    },
    {
      "anonymous": false,
      "inputs": [
        {
          "indexed": true,
          "internalType": "address",
          "name": "previousOwner",
          "type": "address"
        },
        {
          "indexed": true,
          "internalType": "address",
          "name": "newOwner",
          "type": "address"
        }
      ],
      "name": "OwnershipTransferred",
      "type": "event"
    },
    {
      "anonymous": false,
      "inputs": [
        {
          "indexed": true,
          "internalType": "address",
          "name": "from",
          "type": "address"
        },
        {
          "indexed": true,
          "internalType": "address",
          "name": "to",
          "type": "address"
        },
        {
          "indexed": true,
          "internalType": "uint256",
          "name": "tokenId",
          "type": "uint256"
        }
      ],
      "name": "Transfer",
      "type": "event"
    },
    {
      "inputs": [
        {
          "internalType": "address",
          "name": "to",
          "type": "address"
        },
        {
          "internalType": "uint256",
          "name": "tokenId",
          "type": "uint256"
        }
      ],
      "name": "approve",
      "outputs": [],
      "stateMutability": "nonpayable",
      "type": "function"
    },
    {
      "inputs": [
        {
          "internalType": "address",
          "name": "owner",
          "type": "address"
        }
      ],
      "name": "balanceOf",
      "outputs": [
        {
          "internalType": "uint256",
          "name": "",
          "type": "uint256"
        }
      ],
      "stateMutability": "view",
      "type": "function",
      "constant": true
    },
    {
      "inputs": [],
      "name": "baseUri",
      "outputs": [
        {
          "internalType": "string",
          "name": "",
          "type": "string"
        }
      ],
      "stateMutability": "view",
      "type": "function",
      "constant": true
    },
    {
      "inputs": [
        {
          "internalType": "uint256",
          "name": "tokenId",
          "type": "uint256"
        }
      ],
      "name": "getApproved",
      "outputs": [
        {
          "internalType": "address",
          "name": "",
          "type": "address"
        }
      ],
      "stateMutability": "view",
      "type": "function",
      "constant": true
    },
    {
      "inputs": [
        {
          "internalType": "address",
          "name": "owner",
          "type": "address"
        },
        {
          "internalType": "address",
          "name": "operator",
          "type": "address"
        }
      ],
      "name": "isApprovedForAll",
      "outputs": [
        {
          "internalType": "bool",
          "name": "",
          "type": "bool"
        }
      ],
      "stateMutability": "view",
      "type": "function",
      "constant": true
    },
    {
      "inputs": [],
      "name": "name",
      "outputs": [
        {
          "internalType": "string",
          "name": "",
          "type": "string"
        }
      ],
      "stateMutability": "view",
      "type": "function",
      "constant": true
    },
    {
      "inputs": [],
      "name": "owner",
      "outputs": [
        {
          "internalType": "address",
          "name": "",
          "type": "address"
        }
      ],
      "stateMutability": "view",
      "type": "function",
      "constant": true
    },
    {
      "inputs": [
        {
          "internalType": "uint256",
          "name": "tokenId",
          "type": "uint256"
        }
      ],
      "name": "ownerOf",
      "outputs": [
        {
          "internalType": "address",
          "name": "",
          "type": "address"
        }
      ],
      "stateMutability": "view",
      "type": "function",
      "constant": true
    },
    {
      "inputs": [
        {
          "internalType": "address",
          "name": "from",
          "type": "address"
        },
        {
          "internalType": "address",
          "name": "to",
          "type": "address"
        },
        {
          "internalType": "uint256",
          "name": "tokenId",
          "type": "uint256"
        }
      ],
      "name": "safeTransferFrom",
      "outputs": [],
      "stateMutability": "nonpayable",
      "type": "function"
    },
    {
      "inputs": [
        {
          "internalType": "address",
          "name": "from",
          "type": "address"
        },
        {
          "internalType": "address",
          "name": "to",
          "type": "address"
        },
        {
          "internalType": "uint256",
          "name": "tokenId",
          "type": "uint256"
        },
        {
          "internalType": "bytes",
          "name": "_data",
          "type": "bytes"
        }
      ],
      "name": "safeTransferFrom",
      "outputs": [],
      "stateMutability": "nonpayable",
      "type": "function"
    },
    {
      "inputs": [
        {
          "internalType": "address",
          "name": "operator",
          "type": "address"
        },
        {
          "internalType": "bool",
          "name": "approved",
          "type": "bool"
        }
      ],
      "name": "setApprovalForAll",
      "outputs": [],
      "stateMutability": "nonpayable",
      "type": "function"
    },
    {
      "inputs": [
        {
          "internalType": "bytes4",
          "name": "interfaceId",
          "type": "bytes4"
        }
      ],
      "name": "supportsInterface",
      "outputs": [
        {
          "internalType": "bool",
          "name": "",
          "type": "bool"
        }
      ],
      "stateMutability": "view",
      "type": "function",
      "constant": true
    },
    {
      "inputs": [],
      "name": "symbol",
      "outputs": [
        {
          "internalType": "string",
          "name": "",
          "type": "string"
        }
      ],
      "stateMutability": "view",
      "type": "function",
      "constant": true
    },
    {
      "inputs": [
        {
          "internalType": "uint256",
          "name": "tokenId",
          "type": "uint256"
        }
      ],
      "name": "tokenURI",
      "outputs": [
        {
          "internalType": "string",
          "name": "",
          "type": "string"
        }
      ],
      "stateMutability": "view",
      "type": "function",
      "constant": true
    },
    {
      "inputs": [
        {
          "internalType": "address",
          "name": "from",
          "type": "address"
        },
        {
          "internalType": "address",
          "name": "to",
          "type": "address"
        },
        {
          "internalType": "uint256",
          "name": "tokenId",
          "type": "uint256"
        }
      ],
      "name": "transferFrom",
      "outputs": [],
      "stateMutability": "nonpayable",
      "type": "function"
    },
    {
      "inputs": [
        {
          "internalType": "address",
          "name": "newOwner",
          "type": "address"
        }
      ],
      "name": "transferOwnership",
      "outputs": [],
      "stateMutability": "nonpayable",
      "type": "function"
    },
    {
      "inputs": [
        {
          "internalType": "uint256",
          "name": "_tokenId",
          "type": "uint256"
        },
        {
          "internalType": "string",
          "name": "_tokenUri",
          "type": "string"
        }
      ],
      "name": "mint",
      "outputs": [],
      "stateMutability": "nonpayable",
      "type": "function"
    },
    {
      "inputs": [
        {
          "internalType": "string",
          "name": "_uri",
          "type": "string"
        }
      ],
      "name": "setBaseURI",
      "outputs": [],
      "stateMutability": "nonpayable",
      "type": "function"
    },
    {
      "inputs": [],
      "name": "renounceOwnership",
      "outputs": [],
      "stateMutability": "view",
      "type": "function",
      "constant": true
    }
  ],
  "bytecode": "0x60806040523480156200001157600080fd5b5060405162003798380380620037988339818101604052810190620000379190620003b0565b818181600090805190602001906200005192919062000163565b5080600190805190602001906200006a92919062000163565b5050506200008d620000816200009560201b60201c565b6200009d60201b60201c565b50506200049a565b600033905090565b6000600760009054906101000a900473ffffffffffffffffffffffffffffffffffffffff16905081600760006101000a81548173ffffffffffffffffffffffffffffffffffffffff021916908373ffffffffffffffffffffffffffffffffffffffff1602179055508173ffffffffffffffffffffffffffffffffffffffff168173ffffffffffffffffffffffffffffffffffffffff167f8be0079c531659141344cd1fd0a4f28419497f9722a3daafe3b4186f6b6457e060405160405180910390a35050565b828054620001719062000464565b90600052602060002090601f016020900481019282620001955760008555620001e1565b82601f10620001b057805160ff1916838001178555620001e1565b82800160010185558215620001e1579182015b82811115620001e0578251825591602001919060010190620001c3565b5b509050620001f09190620001f4565b5090565b5b808211156200020f576000816000905550600101620001f5565b5090565b6000604051905090565b600080fd5b600080fd5b600080fd5b600080fd5b6000601f19601f8301169050919050565b7f4e487b7100000000000000000000000000000000000000000000000000000000600052604160045260246000fd5b6200027c8262000231565b810181811067ffffffffffffffff821117156200029e576200029d62000242565b5b80604052505050565b6000620002b362000213565b9050620002c1828262000271565b919050565b600067ffffffffffffffff821115620002e457620002e362000242565b5b620002ef8262000231565b9050602081019050919050565b60005b838110156200031c578082015181840152602081019050620002ff565b838111156200032c576000848401525b50505050565b6000620003496200034384620002c6565b620002a7565b9050828152602081018484840111156200036857620003676200022c565b5b62000375848285620002fc565b509392505050565b600082601f83011262000395576200039462000227565b5b8151620003a784826020860162000332565b91505092915050565b60008060408385031215620003ca57620003c96200021d565b5b600083015167ffffffffffffffff811115620003eb57620003ea62000222565b5b620003f9858286016200037d565b925050602083015167ffffffffffffffff8111156200041d576200041c62000222565b5b6200042b858286016200037d565b9150509250929050565b7f4e487b7100000000000000000000000000000000000000000000000000000000600052602260045260246000fd5b600060028204905060018216806200047d57607f821691505b6020821081141562000494576200049362000435565b5b50919050565b6132ee80620004aa6000396000f3fe608060405234801561001057600080fd5b50600436106101215760003560e01c8063715018a6116100ad578063a22cb46511610071578063a22cb465146102f4578063b88d4fde14610310578063c87b56dd1461032c578063e985e9c51461035c578063f2fde38b1461038c57610121565b8063715018a61461027457806377097fc81461027e5780638da5cb5b1461029a57806395d89b41146102b85780639abc8320146102d657610121565b806323b872dd116100f457806323b872dd146101c057806342842e0e146101dc57806355f804b3146101f85780636352211e1461021457806370a082311461024457610121565b806301ffc9a71461012657806306fdde0314610156578063081812fc14610174578063095ea7b3146101a4575b600080fd5b610140600480360381019061013b9190611de5565b6103a8565b60405161014d9190611e2d565b60405180910390f35b61015e61048a565b60405161016b9190611ee1565b60405180910390f35b61018e60048036038101906101899190611f39565b61051c565b60405161019b9190611fa7565b60405180910390f35b6101be60048036038101906101b99190611fee565b6105a1565b005b6101da60048036038101906101d5919061202e565b6106b9565b005b6101f660048036038101906101f1919061202e565b610719565b005b610212600480360381019061020d91906121b6565b610739565b005b61022e60048036038101906102299190611f39565b6107cf565b60405161023b9190611fa7565b60405180910390f35b61025e600480360381019061025991906121ff565b610881565b60405161026b919061223b565b60405180910390f35b61027c610939565b005b61029860048036038101906102939190612256565b6109f0565b005b6102a2610a4b565b6040516102af9190611fa7565b60405180910390f35b6102c0610a75565b6040516102cd9190611ee1565b60405180910390f35b6102de610b07565b6040516102eb9190611ee1565b60405180910390f35b61030e600480360381019061030991906122de565b610b95565b005b61032a600480360381019061032591906123bf565b610bab565b005b61034660048036038101906103419190611f39565b610c0d565b6040516103539190611ee1565b60405180910390f35b61037660048036038101906103719190612442565b610d5f565b6040516103839190611e2d565b60405180910390f35b6103a660048036038101906103a191906121ff565b610df3565b005b60007f80ac58cd000000000000000000000000000000000000000000000000000000007bffffffffffffffffffffffffffffffffffffffffffffffffffffffff1916827bffffffffffffffffffffffffffffffffffffffffffffffffffffffff1916148061047357507f5b5e139f000000000000000000000000000000000000000000000000000000007bffffffffffffffffffffffffffffffffffffffffffffffffffffffff1916827bffffffffffffffffffffffffffffffffffffffffffffffffffffffff1916145b80610483575061048282610eeb565b5b9050919050565b606060008054610499906124b1565b80601f01602080910402602001604051908101604052809291908181526020018280546104c5906124b1565b80156105125780601f106104e757610100808354040283529160200191610512565b820191906000526020600020905b8154815290600101906020018083116104f557829003601f168201915b5050505050905090565b600061052782610f55565b610566576040517f08c379a000000000000000000000000000000000000000000000000000000000815260040161055d90612555565b60405180910390fd5b6004600083815260200190815260200160002060009054906101000a900473ffffffffffffffffffffffffffffffffffffffff169050919050565b60006105ac826107cf565b90508073ffffffffffffffffffffffffffffffffffffffff168373ffffffffffffffffffffffffffffffffffffffff16141561061d576040517f08c379a0000000000000000000000000000000000000000000000000000000008152600401610614906125e7565b60405180910390fd5b8073ffffffffffffffffffffffffffffffffffffffff1661063c610fc1565b73ffffffffffffffffffffffffffffffffffffffff16148061066b575061066a81610665610fc1565b610d5f565b5b6106aa576040517f08c379a00000000000000000000000000000000000000000000000000000000081526004016106a190612679565b60405180910390fd5b6106b48383610fc9565b505050565b6106ca6106c4610fc1565b82611082565b610709576040517f08c379a00000000000000000000000000000000000000000000000000000000081526004016107009061270b565b60405180910390fd5b610714838383611160565b505050565b61073483838360405180602001604052806000815250610bab565b505050565b610741610fc1565b73ffffffffffffffffffffffffffffffffffffffff1661075f610a4b565b73ffffffffffffffffffffffffffffffffffffffff16146107b5576040517f08c379a00000000000000000000000000000000000000000000000000000000081526004016107ac90612777565b60405180910390fd5b80600890805190602001906107cb929190611cd6565b5050565b6000806002600084815260200190815260200160002060009054906101000a900473ffffffffffffffffffffffffffffffffffffffff169050600073ffffffffffffffffffffffffffffffffffffffff168173ffffffffffffffffffffffffffffffffffffffff161415610878576040517f08c379a000000000000000000000000000000000000000000000000000000000815260040161086f90612809565b60405180910390fd5b80915050919050565b60008073ffffffffffffffffffffffffffffffffffffffff168273ffffffffffffffffffffffffffffffffffffffff1614156108f2576040517f08c379a00000000000000000000000000000000000000000000000000000000081526004016108e99061289b565b60405180910390fd5b600360008373ffffffffffffffffffffffffffffffffffffffff1673ffffffffffffffffffffffffffffffffffffffff168152602001908152602001600020549050919050565b610941610fc1565b73ffffffffffffffffffffffffffffffffffffffff1661095f610a4b565b73ffffffffffffffffffffffffffffffffffffffff16146109b5576040517f08c379a00000000000000000000000000000000000000000000000000000000081526004016109ac90612777565b60405180910390fd5b6040517f08c379a00000000000000000000000000000000000000000000000000000000081526004016109e79061292d565b60405180910390fd5b60008211610a33576040517f08c379a0000000000000000000000000000000000000000000000000000000008152600401610a2a906129bf565b60405180910390fd5b610a3d33836113bc565b610a47828261158a565b5050565b6000600760009054906101000a900473ffffffffffffffffffffffffffffffffffffffff16905090565b606060018054610a84906124b1565b80601f0160208091040260200160405190810160405280929190818152602001828054610ab0906124b1565b8015610afd5780601f10610ad257610100808354040283529160200191610afd565b820191906000526020600020905b815481529060010190602001808311610ae057829003601f168201915b5050505050905090565b60088054610b14906124b1565b80601f0160208091040260200160405190810160405280929190818152602001828054610b40906124b1565b8015610b8d5780601f10610b6257610100808354040283529160200191610b8d565b820191906000526020600020905b815481529060010190602001808311610b7057829003601f168201915b505050505081565b610ba7610ba0610fc1565b83836115fe565b5050565b610bbc610bb6610fc1565b83611082565b610bfb576040517f08c379a0000000000000000000000000000000000000000000000000000000008152600401610bf29061270b565b60405180910390fd5b610c078484848461176b565b50505050565b6060610c1882610f55565b610c57576040517f08c379a0000000000000000000000000000000000000000000000000000000008152600401610c4e90612a51565b60405180910390fd5b6000600660008481526020019081526020016000208054610c77906124b1565b80601f0160208091040260200160405190810160405280929190818152602001828054610ca3906124b1565b8015610cf05780601f10610cc557610100808354040283529160200191610cf0565b820191906000526020600020905b815481529060010190602001808311610cd357829003601f168201915b505050505090506000610d016117c7565b9050600081511415610d17578192505050610d5a565b600082511115610d4c578082604051602001610d34929190612aad565b60405160208183030381529060405292505050610d5a565b610d5584611859565b925050505b919050565b6000600560008473ffffffffffffffffffffffffffffffffffffffff1673ffffffffffffffffffffffffffffffffffffffff16815260200190815260200160002060008373ffffffffffffffffffffffffffffffffffffffff1673ffffffffffffffffffffffffffffffffffffffff16815260200190815260200160002060009054906101000a900460ff16905092915050565b610dfb610fc1565b73ffffffffffffffffffffffffffffffffffffffff16610e19610a4b565b73ffffffffffffffffffffffffffffffffffffffff1614610e6f576040517f08c379a0000000000000000000000000000000000000000000000000000000008152600401610e6690612777565b60405180910390fd5b600073ffffffffffffffffffffffffffffffffffffffff168173ffffffffffffffffffffffffffffffffffffffff161415610edf576040517f08c379a0000000000000000000000000000000000000000000000000000000008152600401610ed690612b43565b60405180910390fd5b610ee881611900565b50565b60007f01ffc9a7000000000000000000000000000000000000000000000000000000007bffffffffffffffffffffffffffffffffffffffffffffffffffffffff1916827bffffffffffffffffffffffffffffffffffffffffffffffffffffffff1916149050919050565b60008073ffffffffffffffffffffffffffffffffffffffff166002600084815260200190815260200160002060009054906101000a900473ffffffffffffffffffffffffffffffffffffffff1673ffffffffffffffffffffffffffffffffffffffff1614159050919050565b600033905090565b816004600083815260200190815260200160002060006101000a81548173ffffffffffffffffffffffffffffffffffffffff021916908373ffffffffffffffffffffffffffffffffffffffff160217905550808273ffffffffffffffffffffffffffffffffffffffff1661103c836107cf565b73ffffffffffffffffffffffffffffffffffffffff167f8c5be1e5ebec7d5bd14f71427d1e84f3dd0314c0f7b2291e5b200ac8c7c3b92560405160405180910390a45050565b600061108d82610f55565b6110cc576040517f08c379a00000000000000000000000000000000000000000000000000000000081526004016110c390612bd5565b60405180910390fd5b60006110d7836107cf565b90508073ffffffffffffffffffffffffffffffffffffffff168473ffffffffffffffffffffffffffffffffffffffff16148061114657508373ffffffffffffffffffffffffffffffffffffffff1661112e8461051c565b73ffffffffffffffffffffffffffffffffffffffff16145b8061115757506111568185610d5f565b5b91505092915050565b8273ffffffffffffffffffffffffffffffffffffffff16611180826107cf565b73ffffffffffffffffffffffffffffffffffffffff16146111d6576040517f08c379a00000000000000000000000000000000000000000000000000000000081526004016111cd90612c67565b60405180910390fd5b600073ffffffffffffffffffffffffffffffffffffffff168273ffffffffffffffffffffffffffffffffffffffff161415611246576040517f08c379a000000000000000000000000000000000000000000000000000000000815260040161123d90612cf9565b60405180910390fd5b6112518383836119c6565b61125c600082610fc9565b6001600360008573ffffffffffffffffffffffffffffffffffffffff1673ffffffffffffffffffffffffffffffffffffffff16815260200190815260200160002060008282546112ac9190612d48565b925050819055506001600360008473ffffffffffffffffffffffffffffffffffffffff1673ffffffffffffffffffffffffffffffffffffffff16815260200190815260200160002060008282546113039190612d7c565b92505081905550816002600083815260200190815260200160002060006101000a81548173ffffffffffffffffffffffffffffffffffffffff021916908373ffffffffffffffffffffffffffffffffffffffff160217905550808273ffffffffffffffffffffffffffffffffffffffff168473ffffffffffffffffffffffffffffffffffffffff167fddf252ad1be2c89b69c2b068fc378daa952ba7f163c4a11628f55a4df523b3ef60405160405180910390a4505050565b600073ffffffffffffffffffffffffffffffffffffffff168273ffffffffffffffffffffffffffffffffffffffff16141561142c576040517f08c379a000000000000000000000000000000000000000000000000000000000815260040161142390612e1e565b60405180910390fd5b61143581610f55565b15611475576040517f08c379a000000000000000000000000000000000000000000000000000000000815260040161146c90612e8a565b60405180910390fd5b611481600083836119c6565b6001600360008473ffffffffffffffffffffffffffffffffffffffff1673ffffffffffffffffffffffffffffffffffffffff16815260200190815260200160002060008282546114d19190612d7c565b92505081905550816002600083815260200190815260200160002060006101000a81548173ffffffffffffffffffffffffffffffffffffffff021916908373ffffffffffffffffffffffffffffffffffffffff160217905550808273ffffffffffffffffffffffffffffffffffffffff16600073ffffffffffffffffffffffffffffffffffffffff167fddf252ad1be2c89b69c2b068fc378daa952ba7f163c4a11628f55a4df523b3ef60405160405180910390a45050565b61159382610f55565b6115d2576040517f08c379a00000000000000000000000000000000000000000000000000000000081526004016115c990612f1c565b60405180910390fd5b806006600084815260200190815260200160002090805190602001906115f9929190611cd6565b505050565b8173ffffffffffffffffffffffffffffffffffffffff168373ffffffffffffffffffffffffffffffffffffffff16141561166d576040517f08c379a000000000000000000000000000000000000000000000000000000000815260040161166490612f88565b60405180910390fd5b80600560008573ffffffffffffffffffffffffffffffffffffffff1673ffffffffffffffffffffffffffffffffffffffff16815260200190815260200160002060008473ffffffffffffffffffffffffffffffffffffffff1673ffffffffffffffffffffffffffffffffffffffff16815260200190815260200160002060006101000a81548160ff0219169083151502179055508173ffffffffffffffffffffffffffffffffffffffff168373ffffffffffffffffffffffffffffffffffffffff167f17307eab39ab6107e8899845ad3d59bd9653f200f220920489ca2b5937696c318360405161175e9190611e2d565b60405180910390a3505050565b611776848484611160565b611782848484846119cb565b6117c1576040517f08c379a00000000000000000000000000000000000000000000000000000000081526004016117b89061301a565b60405180910390fd5b50505050565b6060600880546117d6906124b1565b80601f0160208091040260200160405190810160405280929190818152602001828054611802906124b1565b801561184f5780601f106118245761010080835404028352916020019161184f565b820191906000526020600020905b81548152906001019060200180831161183257829003601f168201915b5050505050905090565b606061186482610f55565b6118a3576040517f08c379a000000000000000000000000000000000000000000000000000000000815260040161189a906130ac565b60405180910390fd5b60006118ad6117c7565b905060008151116118cd57604051806020016040528060008152506118f8565b806118d784611b62565b6040516020016118e8929190612aad565b6040516020818303038152906040525b915050919050565b6000600760009054906101000a900473ffffffffffffffffffffffffffffffffffffffff16905081600760006101000a81548173ffffffffffffffffffffffffffffffffffffffff021916908373ffffffffffffffffffffffffffffffffffffffff1602179055508173ffffffffffffffffffffffffffffffffffffffff168173ffffffffffffffffffffffffffffffffffffffff167f8be0079c531659141344cd1fd0a4f28419497f9722a3daafe3b4186f6b6457e060405160405180910390a35050565b505050565b60006119ec8473ffffffffffffffffffffffffffffffffffffffff16611cc3565b15611b55578373ffffffffffffffffffffffffffffffffffffffff1663150b7a02611a15610fc1565b8786866040518563ffffffff1660e01b8152600401611a379493929190613121565b602060405180830381600087803b158015611a5157600080fd5b505af1925050508015611a8257506040513d601f19601f82011682018060405250810190611a7f9190613182565b60015b611b05573d8060008114611ab2576040519150601f19603f3d011682016040523d82523d6000602084013e611ab7565b606091505b50600081511415611afd576040517f08c379a0000000000000000000000000000000000000000000000000000000008152600401611af49061301a565b60405180910390fd5b805181602001fd5b63150b7a0260e01b7bffffffffffffffffffffffffffffffffffffffffffffffffffffffff1916817bffffffffffffffffffffffffffffffffffffffffffffffffffffffff191614915050611b5a565b600190505b949350505050565b60606000821415611baa576040518060400160405280600181526020017f30000000000000000000000000000000000000000000000000000000000000008152509050611cbe565b600082905060005b60008214611bdc578080611bc5906131af565b915050600a82611bd59190613227565b9150611bb2565b60008167ffffffffffffffff811115611bf857611bf761208b565b5b6040519080825280601f01601f191660200182016040528015611c2a5781602001600182028036833780820191505090505b5090505b60008514611cb757600182611c439190612d48565b9150600a85611c529190613258565b6030611c5e9190612d7c565b60f81b818381518110611c7457611c73613289565b5b60200101907effffffffffffffffffffffffffffffffffffffffffffffffffffffffffffff1916908160001a905350600a85611cb09190613227565b9450611c2e565b8093505050505b919050565b600080823b905060008111915050919050565b828054611ce2906124b1565b90600052602060002090601f016020900481019282611d045760008555611d4b565b82601f10611d1d57805160ff1916838001178555611d4b565b82800160010185558215611d4b579182015b82811115611d4a578251825591602001919060010190611d2f565b5b509050611d589190611d5c565b5090565b5b80821115611d75576000816000905550600101611d5d565b5090565b6000604051905090565b600080fd5b600080fd5b60007fffffffff0000000000000000000000000000000000000000000000000000000082169050919050565b611dc281611d8d565b8114611dcd57600080fd5b50565b600081359050611ddf81611db9565b92915050565b600060208284031215611dfb57611dfa611d83565b5b6000611e0984828501611dd0565b91505092915050565b60008115159050919050565b611e2781611e12565b82525050565b6000602082019050611e426000830184611e1e565b92915050565b600081519050919050565b600082825260208201905092915050565b60005b83811015611e82578082015181840152602081019050611e67565b83811115611e91576000848401525b50505050565b6000601f19601f8301169050919050565b6000611eb382611e48565b611ebd8185611e53565b9350611ecd818560208601611e64565b611ed681611e97565b840191505092915050565b60006020820190508181036000830152611efb8184611ea8565b905092915050565b6000819050919050565b611f1681611f03565b8114611f2157600080fd5b50565b600081359050611f3381611f0d565b92915050565b600060208284031215611f4f57611f4e611d83565b5b6000611f5d84828501611f24565b91505092915050565b600073ffffffffffffffffffffffffffffffffffffffff82169050919050565b6000611f9182611f66565b9050919050565b611fa181611f86565b82525050565b6000602082019050611fbc6000830184611f98565b92915050565b611fcb81611f86565b8114611fd657600080fd5b50565b600081359050611fe881611fc2565b92915050565b6000806040838503121561200557612004611d83565b5b600061201385828601611fd9565b925050602061202485828601611f24565b9150509250929050565b60008060006060848603121561204757612046611d83565b5b600061205586828701611fd9565b935050602061206686828701611fd9565b925050604061207786828701611f24565b9150509250925092565b600080fd5b600080fd5b7f4e487b7100000000000000000000000000000000000000000000000000000000600052604160045260246000fd5b6120c382611e97565b810181811067ffffffffffffffff821117156120e2576120e161208b565b5b80604052505050565b60006120f5611d79565b905061210182826120ba565b919050565b600067ffffffffffffffff8211156121215761212061208b565b5b61212a82611e97565b9050602081019050919050565b82818337600083830152505050565b600061215961215484612106565b6120eb565b90508281526020810184848401111561217557612174612086565b5b612180848285612137565b509392505050565b600082601f83011261219d5761219c612081565b5b81356121ad848260208601612146565b91505092915050565b6000602082840312156121cc576121cb611d83565b5b600082013567ffffffffffffffff8111156121ea576121e9611d88565b5b6121f684828501612188565b91505092915050565b60006020828403121561221557612214611d83565b5b600061222384828501611fd9565b91505092915050565b61223581611f03565b82525050565b6000602082019050612250600083018461222c565b92915050565b6000806040838503121561226d5761226c611d83565b5b600061227b85828601611f24565b925050602083013567ffffffffffffffff81111561229c5761229b611d88565b5b6122a885828601612188565b9150509250929050565b6122bb81611e12565b81146122c657600080fd5b50565b6000813590506122d8816122b2565b92915050565b600080604083850312156122f5576122f4611d83565b5b600061230385828601611fd9565b9250506020612314858286016122c9565b9150509250929050565b600067ffffffffffffffff8211156123395761233861208b565b5b61234282611e97565b9050602081019050919050565b600061236261235d8461231e565b6120eb565b90508281526020810184848401111561237e5761237d612086565b5b612389848285612137565b509392505050565b600082601f8301126123a6576123a5612081565b5b81356123b684826020860161234f565b91505092915050565b600080600080608085870312156123d9576123d8611d83565b5b60006123e787828801611fd9565b94505060206123f887828801611fd9565b935050604061240987828801611f24565b925050606085013567ffffffffffffffff81111561242a57612429611d88565b5b61243687828801612391565b91505092959194509250565b6000806040838503121561245957612458611d83565b5b600061246785828601611fd9565b925050602061247885828601611fd9565b9150509250929050565b7f4e487b7100000000000000000000000000000000000000000000000000000000600052602260045260246000fd5b600060028204905060018216806124c957607f821691505b602082108114156124dd576124dc612482565b5b50919050565b7f4552433732313a20617070726f76656420717565727920666f72206e6f6e657860008201527f697374656e7420746f6b656e0000000000000000000000000000000000000000602082015250565b600061253f602c83611e53565b915061254a826124e3565b604082019050919050565b6000602082019050818103600083015261256e81612532565b9050919050565b7f4552433732313a20617070726f76616c20746f2063757272656e74206f776e6560008201527f7200000000000000000000000000000000000000000000000000000000000000602082015250565b60006125d1602183611e53565b91506125dc82612575565b604082019050919050565b60006020820190508181036000830152612600816125c4565b9050919050565b7f4552433732313a20617070726f76652063616c6c6572206973206e6f74206f7760008201527f6e6572206e6f7220617070726f76656420666f7220616c6c0000000000000000602082015250565b6000612663603883611e53565b915061266e82612607565b604082019050919050565b6000602082019050818103600083015261269281612656565b9050919050565b7f4552433732313a207472616e736665722063616c6c6572206973206e6f74206f60008201527f776e6572206e6f7220617070726f766564000000000000000000000000000000602082015250565b60006126f5603183611e53565b915061270082612699565b604082019050919050565b60006020820190508181036000830152612724816126e8565b9050919050565b7f4f776e61626c653a2063616c6c6572206973206e6f7420746865206f776e6572600082015250565b6000612761602083611e53565b915061276c8261272b565b602082019050919050565b6000602082019050818103600083015261279081612754565b9050919050565b7f4552433732313a206f776e657220717565727920666f72206e6f6e657869737460008201527f656e7420746f6b656e0000000000000000000000000000000000000000000000602082015250565b60006127f3602983611e53565b91506127fe82612797565b604082019050919050565b60006020820190508181036000830152612822816127e6565b9050919050565b7f4552433732313a2062616c616e636520717565727920666f7220746865207a6560008201527f726f206164647265737300000000000000000000000000000000000000000000602082015250565b6000612885602a83611e53565b915061289082612829565b604082019050919050565b600060208201905081810360008301526128b481612878565b9050919050565b7f4f776e6572736869702063616e27742062652072656e6f756e63656420666f7260008201527f207468697320636f6e7472616374000000000000000000000000000000000000602082015250565b6000612917602e83611e53565b9150612922826128bb565b604082019050919050565b600060208201905081810360008301526129468161290a565b9050919050565b7f546f6b656e2069642073686f756c642062652067726561746572207468616e2060008201527f7a65726f00000000000000000000000000000000000000000000000000000000602082015250565b60006129a9602483611e53565b91506129b48261294d565b604082019050919050565b600060208201905081810360008301526129d88161299c565b9050919050565b7f45524337323155524953746f726167653a2055524920717565727920666f722060008201527f6e6f6e6578697374656e7420746f6b656e000000000000000000000000000000602082015250565b6000612a3b603183611e53565b9150612a46826129df565b604082019050919050565b60006020820190508181036000830152612a6a81612a2e565b9050919050565b600081905092915050565b6000612a8782611e48565b612a918185612a71565b9350612aa1818560208601611e64565b80840191505092915050565b6000612ab98285612a7c565b9150612ac58284612a7c565b91508190509392505050565b7f4f776e61626c653a206e6577206f776e657220697320746865207a65726f206160008201527f6464726573730000000000000000000000000000000000000000000000000000602082015250565b6000612b2d602683611e53565b9150612b3882612ad1565b604082019050919050565b60006020820190508181036000830152612b5c81612b20565b9050919050565b7f4552433732313a206f70657261746f7220717565727920666f72206e6f6e657860008201527f697374656e7420746f6b656e0000000000000000000000000000000000000000602082015250565b6000612bbf602c83611e53565b9150612bca82612b63565b604082019050919050565b60006020820190508181036000830152612bee81612bb2565b9050919050565b7f4552433732313a207472616e73666572206f6620746f6b656e2074686174206960008201527f73206e6f74206f776e0000000000000000000000000000000000000000000000602082015250565b6000612c51602983611e53565b9150612c5c82612bf5565b604082019050919050565b60006020820190508181036000830152612c8081612c44565b9050919050565b7f4552433732313a207472616e7366657220746f20746865207a65726f2061646460008201527f7265737300000000000000000000000000000000000000000000000000000000602082015250565b6000612ce3602483611e53565b9150612cee82612c87565b604082019050919050565b60006020820190508181036000830152612d1281612cd6565b9050919050565b7f4e487b7100000000000000000000000000000000000000000000000000000000600052601160045260246000fd5b6000612d5382611f03565b9150612d5e83611f03565b925082821015612d7157612d70612d19565b5b828203905092915050565b6000612d8782611f03565b9150612d9283611f03565b9250827fffffffffffffffffffffffffffffffffffffffffffffffffffffffffffffffff03821115612dc757612dc6612d19565b5b828201905092915050565b7f4552433732313a206d696e7420746f20746865207a65726f2061646472657373600082015250565b6000612e08602083611e53565b9150612e1382612dd2565b602082019050919050565b60006020820190508181036000830152612e3781612dfb565b9050919050565b7f4552433732313a20746f6b656e20616c7265616479206d696e74656400000000600082015250565b6000612e74601c83611e53565b9150612e7f82612e3e565b602082019050919050565b60006020820190508181036000830152612ea381612e67565b9050919050565b7f45524337323155524953746f726167653a2055524920736574206f66206e6f6e60008201527f6578697374656e7420746f6b656e000000000000000000000000000000000000602082015250565b6000612f06602e83611e53565b9150612f1182612eaa565b604082019050919050565b60006020820190508181036000830152612f3581612ef9565b9050919050565b7f4552433732313a20617070726f766520746f2063616c6c657200000000000000600082015250565b6000612f72601983611e53565b9150612f7d82612f3c565b602082019050919050565b60006020820190508181036000830152612fa181612f65565b9050919050565b7f4552433732313a207472616e7366657220746f206e6f6e20455243373231526560008201527f63656976657220696d706c656d656e7465720000000000000000000000000000602082015250565b6000613004603283611e53565b915061300f82612fa8565b604082019050919050565b6000602082019050818103600083015261303381612ff7565b9050919050565b7f4552433732314d657461646174613a2055524920717565727920666f72206e6f60008201527f6e6578697374656e7420746f6b656e0000000000000000000000000000000000602082015250565b6000613096602f83611e53565b91506130a18261303a565b604082019050919050565b600060208201905081810360008301526130c581613089565b9050919050565b600081519050919050565b600082825260208201905092915050565b60006130f3826130cc565b6130fd81856130d7565b935061310d818560208601611e64565b61311681611e97565b840191505092915050565b60006080820190506131366000830187611f98565b6131436020830186611f98565b613150604083018561222c565b818103606083015261316281846130e8565b905095945050505050565b60008151905061317c81611db9565b92915050565b60006020828403121561319857613197611d83565b5b60006131a68482850161316d565b91505092915050565b60006131ba82611f03565b91507fffffffffffffffffffffffffffffffffffffffffffffffffffffffffffffffff8214156131ed576131ec612d19565b5b600182019050919050565b7f4e487b7100000000000000000000000000000000000000000000000000000000600052601260045260246000fd5b600061323282611f03565b915061323d83611f03565b92508261324d5761324c6131f8565b5b828204905092915050565b600061326382611f03565b915061326e83611f03565b92508261327e5761327d6131f8565b5b828206905092915050565b7f4e487b7100000000000000000000000000000000000000000000000000000000600052603260045260246000fdfea26469706673582212201ccb33712982a0ca6fde97f676b79e1e9c6a04db620ee3439298e5ec0531c2f964736f6c63430008080033",
  "immutableReferences": {},
  "source": "// SPDX-License-Identifier: MIT\r\npragma solidity ^0.8.0;\r\n\r\nimport \"@openzeppelin/contracts/token/ERC721/ERC721.sol\";\r\nimport \"@openzeppelin/contracts/token/ERC721/extensions/ERC721URIStorage.sol\";\r\nimport \"@openzeppelin/contracts/access/Ownable.sol\";\r\n\r\n/**\r\n * @title NFT Contract\r\n *\r\n * @dev Based on ERC721\r\n * Stores the token IDs and URIs for those tokens\r\n */\r\ncontract NFT is ERC721URIStorage, Ownable {\r\n  /**\r\n   * @dev Base URI for the NFTs\r\n   */\r\n  string public baseUri;\r\n\r\n  /**\r\n   * @dev Initialize the contract with token name and symbol\r\n   *\r\n   * @param _nftName Name of the token\r\n   * @param _nftSymbol Token symbol\r\n   */\r\n  constructor(\r\n    string memory _nftName,\r\n    string memory _nftSymbol\r\n  ) ERC721(_nftName, _nftSymbol) {\r\n\r\n  }\r\n\r\n  /**\r\n   * @dev Mint a new token\r\n   *\r\n   * @param _tokenId ID of the new token to be minted\r\n   * @param _tokenUri URI of the token\r\n   */\r\n  function mint(uint _tokenId, string memory _tokenUri) public {\r\n    require(_tokenId > 0, \"Token id should be greater than zero\");\r\n    _mint(msg.sender, _tokenId);\r\n    _setTokenURI(_tokenId, _tokenUri);\r\n  }\r\n\r\n  /**\r\n   * @dev Allows the contract owner to set base URI for the token\r\n   *\r\n   * @param _uri the new URI to be set\r\n   */\r\n  function setBaseURI(string memory _uri) external onlyOwner {\r\n    baseUri = _uri;\r\n  }\r\n\r\n  /**\r\n   * @dev Returns the base URI\r\n   *\r\n   * @return string the base URI\r\n   */\r\n  function _baseURI() internal view override returns(string memory) {\r\n    return baseUri;\r\n  }\r\n\r\n  /**\r\n   * @dev Restricts the owner from setting the ownership to null address\r\n   */\r\n  function renounceOwnership() public view override onlyOwner {\r\n    revert(\"Ownership can't be renounced for this contract\");\r\n  }\r\n}\r\n",
  "sourcePath": "C:/Users/HP/Documents/Projects/nft-marketplace/contracts/NFT.sol",
  "compiler": {
    "name": "solc",
    "version": "0.8.8+commit.dddeac2f.Emscripten.clang"
  },
  "schemaVersion": "3.4.1",
  "updatedAt": "2022-05-01T09:03:49.126Z",
  "networkType": "ethereum",
  "devdoc": {
    "details": "Based on ERC721 Stores the token IDs and URIs for those tokens",
    "kind": "dev",
    "methods": {
      "approve(address,uint256)": {
        "details": "See {IERC721-approve}."
      },
      "balanceOf(address)": {
        "details": "See {IERC721-balanceOf}."
      },
      "constructor": {
        "details": "Initialize the contract with token name and symbol",
        "params": {
          "_nftName": "Name of the token",
          "_nftSymbol": "Token symbol"
        }
      },
      "getApproved(uint256)": {
        "details": "See {IERC721-getApproved}."
      },
      "isApprovedForAll(address,address)": {
        "details": "See {IERC721-isApprovedForAll}."
      },
      "mint(uint256,string)": {
        "details": "Mint a new token",
        "params": {
          "_tokenId": "ID of the new token to be minted",
          "_tokenUri": "URI of the token"
        }
      },
      "name()": {
        "details": "See {IERC721Metadata-name}."
      },
      "owner()": {
        "details": "Returns the address of the current owner."
      },
      "ownerOf(uint256)": {
        "details": "See {IERC721-ownerOf}."
      },
      "renounceOwnership()": {
        "details": "Restricts the owner from setting the ownership to null address"
      },
      "safeTransferFrom(address,address,uint256)": {
        "details": "See {IERC721-safeTransferFrom}."
      },
      "safeTransferFrom(address,address,uint256,bytes)": {
        "details": "See {IERC721-safeTransferFrom}."
      },
      "setApprovalForAll(address,bool)": {
        "details": "See {IERC721-setApprovalForAll}."
      },
      "setBaseURI(string)": {
        "details": "Allows the contract owner to set base URI for the token",
        "params": {
          "_uri": "the new URI to be set"
        }
      },
      "supportsInterface(bytes4)": {
        "details": "See {IERC165-supportsInterface}."
      },
      "symbol()": {
        "details": "See {IERC721Metadata-symbol}."
      },
      "tokenURI(uint256)": {
        "details": "See {IERC721Metadata-tokenURI}."
      },
      "transferFrom(address,address,uint256)": {
        "details": "See {IERC721-transferFrom}."
      },
      "transferOwnership(address)": {
        "details": "Transfers ownership of the contract to a new account (`newOwner`). Can only be called by the current owner."
      }
    },
    "stateVariables": {
      "baseUri": {
        "details": "Base URI for the NFTs"
      }
    },
    "title": "NFT Contract",
    "version": 1
  },
  "userdoc": {
    "kind": "user",
    "methods": {},
    "version": 1
  }
}